:020000040000FA
:020000000528D1
:040002000034003492
:0200080034289A
:06000A0083120313C03055
:100010008B00831603138C168601181218151930DD
:1000200099001730810083120313981718161813BC
:10003000831203138601831603130715FA30920007
:100040008312031317159715BB30950017129716D7
:100050008D101214921012158C1C2C288316031369
:1000600007118312031333281A08A0009A012018DD
:100070004828A0184C2820195028A0195228201AC6
:100080005428A01A5F28201B6428A01B6928090097
:100090008618861006154728061906118614472863
:1000A000572847285B2847288610061147288616B8
:1000B0007520861247280616752006124728BB3081
:1000C000950017129716472864309500171297125B
:1000D000472832309500171297124728FA30A100AE
:1000E00000000000A10B70280800963081000B1161
:0800F0000B1D78280800080030
:02400E00F93F78
:00000001FF
